:020000040800F2
:1000000000000620390900081D0900081F09000822
:100010002109000823090008250900080000000044
:100020000000000000000000000000002709000898
:1000300029090008000000002B0900082D0900080C
:100040008109000881090008810900088109000868
:100050008109000881090008810900088109000858
:100060008109000881090008810900088109000848
:100070008109000881090008810900088109000838
:100080008109000881090008810900088109000828
:100090008109000881090008810900088109000818
:1000A0008109000881090008810900088109000808
:1000B00081090008810900088109000881090008F8
:1000C00081090008810900088109000881090008E8
:1000D00081090008810900088109000881090008D8
:1000E00081090008810900088109000881090008C8
:1000F00081090008810900088109000881090008B8
:1001000081090008810900088109000881090008A7
:100110008109000881090008810900088109000897
:100120008109000881090008810900088109000887
:100130008109000881090008810900088109000877
:100140008109000881090008810900088109000867
:1001500081090008810900080000000081090008E9
:10016000810900088109000800000000000000006B
:1001700081090008810900088109000800000000C9
:1001800000000000810900088109000881090008B9
:1001900081090008000000000000000000000000CD
:1001A00000000000000000000000000081090008BD
:1001B000810900080000000081090008000000001B
:1001C000000000000000000000000000000000002F
:1001D00000000000000000008109000881090008FB
:1001E00081090008810900088109000881090008C7
:1001F00081090008810900088109000881090008B7
:0C0200008109000881090008810900083C
:10020C0010B5054C237833B9044B13B10448AFF344
:10021C0000800123237010BD0400002000000000AA
:10022C00CC09000808B5034B1BB103490348AFF3D5
:10023C00008008BD0000000008000020CC09000868
:10024C0053B94AB9002908BF00281CBF4FF0FF3131
:10025C004FF0FF3000F074B9ADF1080C6DE904CE2D
:10026C0000F006F8DDF804E0DDE9022304B0704785
:10027C002DE9F047089E0D4604468846002B4DD1CB
:10028C008A42944668D9B2FA82F252B101FA02F368
:10029C00C2F1200120FA01F10CFA02FC41EA030838
:1002AC0094404FEA1C45210CB8FBF5FE1FFA8CF765
:1002BC0005FB1E8341EA03430EFB07F199420BD960
:1002CC001CEB03030EF1FF3080F01E81994240F2CB
:1002DC001B81AEF1020E63445B1AA4B2B3FBF5F0C2
:1002EC0005FB103344EA034400FB07F7A7420AD985
:1002FC001CEB040400F1FF3380F00881A74240F2AC
:10030C00058164440238E41B40EA0E4000211EB112
:10031C00D4400023C6E90043BDE8F0878B4208D9DE
:10032C00002E00F0EE800021C6E900050846BDE86D
:10033C00F087B3FA83F100294AD1AB4202D382424F
:10034C0000F2F980841A65EB030301209846002E15
:10035C00E2D0C6E90048DFE702B9FFDEB2FA82F26A
:10036C00002A40F09180A1EB0C054FEA1C471FFAC4
:10037C008CFE0121B5FBF7F307FB1350250C45EA66
:10038C0000450EFB03F0A84208D91CEB050503F150
:10039C00FF3802D2A84200F2CB8043462D1AA4B2F9
:1003AC00B5FBF7F007FB105544EA05440EFB00FEC5
:1003BC00A64508D91CEB040400F1FF3502D2A64572
:1003CC0000F2BB802846A4EB0E0440EA03409EE7F3
:1003DC00C1F120078B4022FA07FC4CEA030C20FAEF
:1003EC0007F405FA01F31C43FD404FEA1C4900FADF
:1003FC0001F3B5FBF9F8200C1FFA8CFE09FB18551C
:10040C0040EA054508FB0EF0A84202FA01F20BD9AE
:10041C001CEB050508F1FF3A80F08880A84240F2F9
:10042C008580A8F1020865442D1AA4B2B5FBF9F039
:10043C0009FB105544EA054500FB0EFEAE4508D9F4
:10044C001CEB050500F1FF346CD2AE456AD90238BD
:10045C00654440EA0840A0FB0294A5EB0E05A542BA
:10046C00C846A64656D353D05EB1B3EB080265EB33
:10047C000E0505FA07F722FA01F3CD401F43C6E932
:10048C0000750021BDE8F087C2F1200320FA03F1CA
:10049C000CFA02FC25FA03F395400D434FEA1C4776
:1004AC001FFA8CFEB3FBF7F107FB11302B0C43EA60
:1004BC00004301FB0EF0984204FA02F408D91CEB3D
:1004CC00030301F1FF382FD298422DD9023963442E
:1004DC001B1AADB2B3FBF7F007FB103345EA03452B
:1004EC0000FB0EF3AB4208D91CEB050500F1FF38FD
:1004FC0016D2AB4214D902386544ED1A40EA0141D8
:10050C0038E73146304607E78646E5E61846FAE610
:10051C004B45A9D2B9EB020864EB0C0E0138A3E7EA
:10052C004046EAE7204694E74146D1E7D0467BE7D0
:10053C00023B654432E7084609E76444023842E767
:10054C00704700BF144A136843F001031360124B49
:10055C001B6813F0020FFAD00F4B9A686FF301026D
:10056C009A600D4B9B6813F00C0FFAD10A4B1A686A
:10057C0022F0867222F480321A6000229A600749B7
:10058C005960C3F8A0204FF41F02DA60044B4FF0FF
:10059C0000629A60704700BF0038024002300300CE
:1005AC0000ED00E010B500F065F901281AD0022822
:1005BC0026D018B12A4B2B4A1A6016E02A4BD3F8D6
:1005CC00A03013F4804F09D0274BD3F8A03013F48C
:1005DC00805F03D0224B254A1A6006E0204B214A4B
:1005EC001A6002E01E4B1F4A1A601F4B9B68C3F334
:1005FC0003131F4AD15C1A4A1368CB40136010BD19
:10060C00194B5A685968C1F3881C5A6802F00F02DA
:10061C005B68C3F30243174911F803E04FEA4C112E
:10062C00B1EB0C0064EB0404A30143EA9063810179
:10063C00091A63EB0403DB0043EA5173C90011EBA5
:10064C000C0C43F1000359020EFB02F200234FEA9B
:10065C004C2041EADC51FFF7F3FD014B1860C4E775
:10066C000000002000127A0000380240006CDC020E
:10067C00EC090008E4090008124A136843F001036E
:10068C001360104B1B6813F0020FFAD00D4B9A68D5
:10069C006FF301029A600B4B9B6813F00C0FFAD1AD
:1006AC00084B1A6822F0867222F480321A600022FB
:1006BC009A6005495960C3F8A0204FF41F02DA6014
:1006CC00704700BF0038024002300300030C03F1F6
:1006DC00804303F50E331A6800F01F00012303FA60
:1006EC0000F030EA020301D000207047012070476F
:1006FC0010B500241120FFF7E9FF012804D0B4F550
:10070C00405F01D20134F5E71120FFF7DFFF01282C
:10071C0000D0002010BD01290ED0030C03F1804342
:10072C0003F50E331A6800F01F00012101FA00F0E6
:10073C0022EA000018607047030C03F1804303F5B4
:10074C000E331A6800F01F0001FA00F01043186015
:10075C0070470000042821D8DFE800F003090F15CA
:10076C001B000F4B1A6861F300021A6070470C4BA8
:10077C001A6861F310421A607047094B1A6861F3EA
:10078C0018621A607047064B1A6F61F300021A6701
:10079C007047034B5A6F61F300025A67704700BFF2
:1007AC0000380240024B9A6860F307129A60704757
:1007BC0000380240024B9A6860F38C229A607047B2
:1007CC0000380240024B9A6860F34F329A607047CF
:1007DC0000380240012807D0074BD3F8A4206FF350
:1007EC000512C3F8A4207047034AD2F8A43043F092
:1007FC003003C2F8A43070470038024010B484466D
:10080C0030B90D4CD4F8A00040F48050C4F8A000CE
:10081C00094844686CF396544460446861F38E1440
:10082C004460416862F303014160426863F3124221
:10083C00426010BC704700BF003802400C4B9A68F5
:10084C0060F301029A6000BF00BF00BF00BF00BF91
:10085C0000BF00BF00BF00BF00BF00BF00BF00BF94
:10086C0000BF00BF00BF00BF00BF00BF00BF70478C
:10087C0000380240024B9868C0F38100704700BFFB
:10088C000038024008B5FFF7F7FE01211E48FFF7BC
:10089C0042FF1E4B1A69012060F302021A6103F534
:1008AC00E6331A6E60F301021A660146FFF752FF37
:1008BC00FFF71EFF0028FBD00223012290211046D7
:1008CC00FFF79CFF01210220FFF744FF1920FFF7DF
:1008DC00FDFE0128FAD10020FFF764FF0420FFF78A
:1008EC0071FF0420FFF766FF0120FFF773FF022062
:1008FC00FFF7A4FFFFF7BEFF0228FBD10020FFF794
:10090C0069FFFFF74FFE08BD1C004000007000405F
:10091C007047FEE7FEE7FEE7FEE77047704770475B
:10092C00704708B5FFF7AEFFFEE70000002103E0BB
:10093C000B4B5B58435004310A480B4B42189A42FC
:10094C00F6D30A4A02E0002342F8043B084B9A42D1
:10095C00F9D3FFF7F7FD00F00FF8FFF7E2FF704750
:10096C000C0A0008000000200400002004000020F5
:10097C0020000020FEE7000070B50D4D0D4C641BEF
:10098C00A4100026A64209D10B4D0C4C00F018F80F
:10099C00641BA4100026A64205D170BD55F8043B7B
:1009AC0098470136EEE755F8043B98470136F2E7D5
:1009BC00040A0008040A0008040A0008080A0008CF
:1009CC00F8B500BFF8BC08BC9E467047F8B500BF30
:0809DC00F8BC08BC9E46704700
:1009E40001020408102000000000000000000000C4
:0809F4000102030406070809D3
:0809FC0080F8FF7F01000000FC
:040A040031020008B3
:040A08000D020008D3
:040A0C0000127A005A
:0400000508000939AD
:00000001FF
